{
  "address": "0x5aDB560b7C5f12dD384641904B922109ba4D0bD6",
  "abi": [
    {
      "inputs": [
        {
          "internalType": "string",
          "name": "_name",
          "type": "string"
        }
      ],
      "stateMutability": "nonpayable",
      "type": "constructor"
    },
    {
      "inputs": [],
      "name": "jump",
      "outputs": [],
      "stateMutability": "nonpayable",
      "type": "function"
    },
    {
      "inputs": [],
      "name": "jumps",
      "outputs": [
        {
          "internalType": "uint256",
          "name": "",
          "type": "uint256"
        }
      ],
      "stateMutability": "view",
      "type": "function"
    },
    {
      "inputs": [],
      "name": "name",
      "outputs": [
        {
          "internalType": "string",
          "name": "",
          "type": "string"
        }
      ],
      "stateMutability": "view",
      "type": "function"
    }
  ],
  "transactionHash": "0xe18468edd3d889e73efd0dafbd3e778cac70b190812bd33c8ed3cca9fb7437be",
  "args": [
    "Froggy"
  ],
  "numDeployments": 1,
  "solcInputHash": "138186aa2b41bd9ee37b7ba5a8271858",
  "bytecode": "0x608060405234801561001057600080fd5b5060405161048738038061048783398101604081905261002f91610058565b600061003b82826101aa565b5050610269565b634e487b7160e01b600052604160045260246000fd5b6000602080838503121561006b57600080fd5b82516001600160401b038082111561008257600080fd5b818501915085601f83011261009657600080fd5b8151818111156100a8576100a8610042565b604051601f8201601f19908116603f011681019083821181831017156100d0576100d0610042565b8160405282815288868487010111156100e857600080fd5b600093505b8284101561010a57848401860151818501870152928501926100ed565b600086848301015280965050505050505092915050565b600181811c9082168061013557607f821691505b60208210810361015557634e487b7160e01b600052602260045260246000fd5b50919050565b601f8211156101a557600081815260208120601f850160051c810160208610156101825750805b601f850160051c820191505b818110156101a15782815560010161018e565b5050505b505050565b81516001600160401b038111156101c3576101c3610042565b6101d7816101d18454610121565b8461015b565b602080601f83116001811461020c57600084156101f45750858301515b600019600386901b1c1916600185901b1785556101a1565b600085815260208120601f198616915b8281101561023b5788860151825594840194600190910190840161021c565b50858210156102595787850151600019600388901b60f8161c191681555b5050505050600190811b01905550565b61020f806102786000396000f3fe608060405234801561001057600080fd5b50600436106100415760003560e01c806306fdde03146100465780638f6c696b14610064578063aabcc7ba1461006e575b600080fd5b61004e610085565b60405161005b919061012a565b60405180910390f35b61006c610113565b005b61007760015481565b60405190815260200161005b565b6000805461009290610178565b80601f01602080910402602001604051908101604052809291908181526020018280546100be90610178565b801561010b5780601f106100e05761010080835404028352916020019161010b565b820191906000526020600020905b8154815290600101906020018083116100ee57829003601f168201915b505050505081565b60018054906000610123836101b2565b9190505550565b600060208083528351808285015260005b818110156101575785810183015185820160400152820161013b565b506000604082860101526040601f19601f8301168501019250505092915050565b600181811c9082168061018c57607f821691505b6020821081036101ac57634e487b7160e01b600052602260045260246000fd5b50919050565b6000600182016101d257634e487b7160e01b600052601160045260246000fd5b506001019056fea264697066735822122047c529f8de3ed47d953c8ee7f63f35965afa627520b8395e34cf70ecdb8fde4364736f6c63430008110033",
  "devdoc": {
    "kind": "dev",
    "methods": {},
    "version": 1
  },
  "userdoc": {
    "kind": "user",
    "methods": {},
    "version": 1
  },
  "storageLayout": {
    "storage": [
      {
        "astId": 22,
        "contract": "contracts/FrogJump.sol:FrogJump",
        "label": "name",
        "offset": 0,
        "slot": "0",
        "type": "t_string_storage"
      },
      {
        "astId": 24,
        "contract": "contracts/FrogJump.sol:FrogJump",
        "label": "jumps",
        "offset": 0,
        "slot": "1",
        "type": "t_uint256"
      }
    ],
    "types": {
      "t_string_storage": {
        "encoding": "bytes",
        "label": "string",
        "numberOfBytes": "32"
      },
      "t_uint256": {
        "encoding": "inplace",
        "label": "uint256",
        "numberOfBytes": "32"
      }
    }
  }
}